:100133003F065B4F666D7D077F6F777C395E797114
:090143007638373E735C40000081
:0A010B00EF93F580C2A67F057E0089
:10011500D3EF9400EE940040147D727C00ED1D70C9
:0D012500011CED4C70F7EF1F70E61E80E32B
:0101320022AA
:04009A00AD08AF09F5
:10009E00EF75F00A84F9EF75F00A84AFF0ED75F0A4
:1000AE000A84FBED75F00A84AAF07580FFD2A7755D
:1000BE0080DFC2A7D2A6EF90013393248012010DE8
:1000CE007580FFD2A77580EFC2A7D2A6AF0112012D
:1000DE000B7580FFD2A77580BFC2A7D2A6AF031241
:1000EE00010B7580FFD2A775807FC2A7D2A6AF0283
:0D00FE00EF93F580C2A67F057E000201157C
:10000300758910758BFD758D4B20B11A1201112066
:10001300B104C28E050920B10512009A80F8E509E2
:10002300B40A03E4F50920B22712011120B208C271
:100033008E740A2508F50820B20512009A80F8D3B9
:10004300E508648094BC400874C42508F5080509D4
:1000530020B00B12011120B002D28E30B0FD308FD0
:1000630030C28F758BFD758D4B050AE50AB41421DB
:10007300E4F50A1508C3E508648094805013E50984
:10008300700AC2A3E4FDFF12009E80F815097508EB
:070093003B12009A02000C71
:0300000002014CAE
:0C014C00787FE4F6D8FD75810A020003FC
:00000001FF
