:1001840057656C636F6D6520746F207379664F5388
:100194000020202020205072657373205332207E6B
:1001A400000073797374656D20696E666F207E310B
:1001B40000000077616974207E32000000000000B6
:0401C4000000000037
:10024E007580FFC2B5D2B6D2B4AF80C2B4EF20E78C
:01025E00F6A9
:01025F00227C
:10026000AE0712024EC2B5C2B68E80D2B4C2B4225C
:10027000AE0712024ED2B5C2B68E80D2B4C2B4223C
:10022300AE07AC03ED6003430640430680AF0612FE
:070233000260AF040202703B
:0C01C80075F011A42408F9E4FAFBFDFF17
:1001D4008B4D8A4E894FED600343074043078012DD
:1001E4000260AB4DAA4EA94F1200F96013054FE50A
:1001F4004F7002054E14F91200F9FF12027080E2EA
:0102040022D7
:10023A007F381202607F0C1202607F061202607F12
:04024A00010202604B
:10020500D3EF9400EE940040147D727C00ED1D70D8
:0D021500011CED4C70F7EF1F70E61E80E33A
:0102220022B9
:1001120078087C007D007BFF7A0179847E007F4431
:100122001200D3E4F54CC2A6C2A712023AAF4C05A4
:100132004CEF1201C8E54C75F011A42408F9E4FA59
:10014200FB0DFF1201D420B0FD7F057E00120205D7
:1001520020B02A7F01120260E54C1201C8E54CB4BE
:1001620003047F008004E54C04FF8F4CEF75F0110F
:10017200A42408F9E4FAFB7D01FF1201D420B0C6E1
:0201820080FB00
:0300000002028079
:0C028000787FE4F6D8FD75814F02011272
:10000300E709F608DFFA8046E709F208DFFA803EDF
:1000130088828C83E709F0A3DFFA8032E309F608CC
:10002300DFFA8078E309F208DFFA807088828C8334
:10003300E309F0A3DFFA806489828A83E0A3F608E8
:10004300DFFA805889828A83E0A3F208DFFA804CC2
:1000530080D280FA80C680D4806980F28033801099
:1000630080A680EA809A80A880DA80E280CA803302
:1000730089828A83ECFAE493A3C8C582C8CCC5837A
:10008300CCF0A3C8C582C8CCC583CCDFE9DEE7804A
:100093000D89828A83E493A3F608DFF9ECFAA9F0C9
:1000A300EDFB2289828A83ECFAE0A3C8C582C8CC1F
:1000B300C583CCF0A3C8C582C8CCC583CCDFEADE38
:1000C300E880DB89828A83E493A3F208DFF980CC9A
:1000D30088F0EF60010E4E60C388F0ED2402B40493
:1000E3000050B9F582EB2402B4040050AF2323453A
:0600F3008223900053730C
:1000F900BB010689828A83E0225002E722BBFE0205
:09010900E32289828A83E4932237
:00000001FF
