:1003D7000144FE01450008467FBFDFEFF7FBFDFE46
:0303E700012200F0
:10039A00C2B500C2B600E4FEEF30E004D2B4800277
:0E03AA00C2B4D2B5C2B5EFC313FF0EBE08EA4F
:0103B8002222
:1003B90074452FF8E6FE74452DF8E6F4FDAF0612F4
:0D03C900039AAF0512039AD2B600C2B60027
:0103D6002204
:1003EB00758922E4F58CF58AD2AFD2A9D28CD2884A
:0303FB00D2A82263
:03000B00020006EA
:030006000552326E
:030003000202EE08
:0902EE00C0E0C0D075D000C000D2
:1002F700300029E552C39435500AE552C394204093
:100307000375210074232521F8A652755200052193
:10031700E521B4210CD2027521008005755200D267
:0103270000D5
:07032800D000D0D0D0E0327C
:100369007E01E4FDE4FC74232EF8E6D394054003F2
:10037900430780ECC394075004EFC313FF0E0CBC72
:1003890008E4744E2DF8A607E4FF0DBD04D6D2018A
:010399002241
:10032F00E4FBFA7590FDE4FCECC39556501B0BBB38
:10033F0000010AEC25E02457F8E6FFEC25E02458ED
:10034F00F8E6FD1203B90C80DFAD54AF531203B9B9
:09035F00D3EB94DCEA940540CDD7
:010368002272
:10024800750E01750F01E4F510E510C3955650338E
:10025800E51025E02457F8E6650E6023E51025E053
:100268002458F8E6650F60171202A17C007D32124F
:1002780001BDEDD394304007850E53850F542205F8
:100288001080C6050FE50FD3940840BA050EE50E99
:08029800D3940840AE120248A5
:0102A000223B
:10000E00E4F5557556027557047558027559047501
:10001E005A01750B57120248D28C758901758C4B9B
:10002E00758AFC1203EBE4F509F50A30023412036B
:10003E0069C20230012C7590FEE55024F8601B2435
:10004E00B6601224F8600924427012E4F555800D52
:10005E0075551080087555018003755511C20175CF
:10006E0090FFE55625E02455F8E6F50CE55625E01B
:10007E002456F8E6F50DE55614FFEFD39400402311
:10008E00EF25E02455F8E6FEEF25E02457F8A60606
:10009E00EF25E02456F8E6FEEF25E02458F8A606F4
:1000AE001F80D7E55514601C24F160291460372495
:1000BE00117049E50B2402F8E6A80BF6E82403F8C4
:1000CE00E6048031E50B2402F8E6A80BF6E82403DB
:1000DE00F8E6148020E50B2402F8E604A80BF6E8F7
:1000EE002403F8E6800FE50B2402F8E614A80BF6BD
:1000FE00E82403F8E6FFE50B04F8A607E557B55329
:10010E001CE558B55417E55625E02457F8A60CE51E
:10011E005625E02458F8A60D055612024812032F54
:03012E0002003498
:03000000020131C9
:0C013100787FE4F6D8FD75816D0201783E
:1001BD00C2D5EC30E709B2D5E4C39DFDE49CFCEE5D
:1001CD0030E715B2D5E4C39FFFE49EFE1201F3C3E1
:1001DD00E49DFDE49CFC80031201F330D507C3E4DC
:0601ED009FFFE49EFE22CC
:1002A100AC11AD12AE13AF147810EC4D4E4F70047B
:1002B1007CA57DA5C3EC13FCED13FDEE13FEEF133E
:1002C100FF5010EC64CCFCED644CFDEE644EFEEF8F
:1002D10064CEFFD8DF8C118D128E138F14EE547FF4
:0D02E100FE228E118F1274A5F513F5142264
:10013D0002000EE493A3F8E493A34003F68001F2CA
:10014D0008DFF48029E493A3F85407240CC8C333C3
:10015D00C4540F4420C8834004F456800146F6DF92
:10016D00E4800B01020408102040809003D7E47E48
:10017D00019360BCA3FF543F30E509541FFEE49387
:10018D00A360010ECF54C025E060A840B8E493A34E
:10019D00FAE493A3F8E493A3C8C582C8CAC583CA79
:1001AD00F0A3C8C582C8CAC583CADFE9DEE780BE31
:0103EA000012
:1001F300BC000BBE0029EF8DF084FFADF022E4CCF0
:10020300F875F008EF2FFFEE33FEEC33FCEE9DECB8
:10021300984005FCEE9DFE0FD5F0E9E4CEFD22EDFE
:10022300F8F5F0EE8420D21CFEADF075F008EF2F48
:10023300FFED33FD4007985006D5F0F222C398FD39
:050243000FD5F0EA22D6
:00000001FF
